:020000040800F2
:100000000000082499050008E9050008E905000832
:10001000E9050008E9050008E905000800000000FE
:10002000000000000000000000000000E9050008DA
:10003000E905000800000000E9050008E9050008DE
:10004000E9050008E9050008E9050008E9050008D8
:10005000E9050008E9050008E9050008E9050008C8
:10006000E9050008E9050008E9050008E9050008B8
:10007000E9050008E9050008E9050008E9050008A8
:10008000E9050008E9050008E9050008E905000898
:10009000E9050008E9050008E9050008E905000888
:1000A000E9050008E9050008E9050008E905000878
:1000B000D1030008E9050008E9050008E905000882
:1000C000E9050008E9050008E9050008E905000858
:1000D000E9050008E9050008E9050008E905000848
:1000E000E9050008E905000800000000E90500082E
:1000F000E9050008E9050008E9050008E905000828
:10010000E9050008E9050008E9050008E905000817
:10011000E9050008E9050008E9050008E905000807
:10012000E9050008E9050008E9050008E9050008F7
:10013000E9050008E9050008E9050008E9050008E7
:1001400000000000000000000000000000000000AF
:10015000E9050008E9050008E9050008E9050008C7
:10016000E9050008E9050008E9050008E9050008B7
:10017000E9050008E9050008E9050008000000009D
:10018000E9050008E9050008E9050008E905000897
:10019000E9050008E9050008E9050008E905000887
:1001A000E9050008E9050008E9050008E905000877
:1001B000E9050008E9050008E9050008E905000867
:1001C000E9050008E9050008E9050008E905000857
:1001D000E9050008E9050008E9050008E905000847
:1001E000E9050008E9050008E9050008E905000837
:1001F000E9050008E9050008E9050008E905000827
:10020000E9050008E9050008E9050008E905000816
:10021000E9050008E9050008E9050008E905000806
:10022000E9050008E9050008E905000800000000EC
:10023000E9050008E905000800000000E9050008DC
:10024000E9050008E9050008E9050008E9050008D6
:10025000E9050008E9050008E9050008E9050008C6
:10026000E9050008E9050008E9050008E9050008B6
:10027000E9050008E9050008E9050008000000009C
:10028000E9050008E9050008E9050008000000008C
:0802900000000000E905000870
:1002980010B5054C237833B9044B13B10448AFF3B8
:1002A80000800123237010BD00000024000000001E
:1002B8003406000808B5034B1BB103490348AFF3E4
:1002C800008008BD00000000040000243406000877
:1002D80080B483B000AF0346FB80B7F90630002B2B
:1002E8000BDBFB8803F01F020749B7F906305B09EF
:1002F800012000FA02F241F8232000BF0C37BD4666
:100308005DF8047B704700BF00E100E080B500AFF6
:1003180000F09CF800F014F800F044F84FF0804327
:10032800DB684FF0804243F00103D3604FF0804315
:100338001B684FF0804243F001031360FEE70000A2
:1003480080B400AF164B9B68154A23F00C039360EA
:10035800134B9B68124A43F004039360104B5B688D
:100368000F4A23F0020353600D4BDB680C4A23F05D
:100378000C03D3600A4B0A4ADB68D360084B1B683E
:10038800074A23F00C031360054B1B68044A43F02B
:100398000403136000BFBD465DF8047B704700BFCF
:1003A8000000025880B500AF1C20FFF791FF4FF006
:1003B800804341F6FF029A624FF0804342F20F7287
:1003C800DA6200BF80BD000080B400AF4FF0804308
:1003D8001B6903F00103002B27D04FF080431B69F2
:1003E8004FF0804223F001031361154B1B78DBB2F9
:1003F800002B02D0012B07D00DE0124B9B69114A4C
:1004080043F00203936109E00E4B9B690D4A43F4E4
:100418000033936102E00A4B00221A70084B1B78E4
:10042800DBB20133DAB2064B1A70074B1B68013393
:10043800054A136000BFBD465DF8047B704700BFE6
:1004480020000024000402581C00002480B400AFDF
:100458000A4BD3F8E030094A43F00103C2F8E03010
:10046800064BD3F8E830054A43F00103C2F8E830F8
:1004780000BFBD465DF8047B704700BF00440258CA
:1004880080B400AF374BD3F88830364A43F4700352
:10049800C2F88830344B1B6803F00F03062B07D8CB
:1004A800314B1B6823F00F032F4A43F007031360F7
:1004B8002E4B1B682D4A43F0010313602B4B00227F
:1004C8001A612A4B1A682949294B13400B60264B9D
:1004D8001B6803F00803002B07D0234B1B6823F08D
:1004E8000F03214A43F007031360204B00229A614F
:1004F8001E4B0022DA611D4B00221A621B4B1D4A5B
:100508009A621A4B1C4ADA62184B1C4A1A63174B38
:1005180000225A63154B194A9A63144B0022DA6376
:10052800124B164A1A64114B00225A640F4B1B686F
:100538000E4A23F4802313600C4B00221A66104BDA
:100548001A68104B1340B3F1005F02D20E4B012220
:100558001A600E4B43F2D2021A6000BFBD465DF826
:10056800047B704700ED00E0002000520044025870
:100578007FEDF6EA000202020000FF01800201019D
:100588000010005C0000FFFF08810051004000528D
:10059800DFF834D0FFF774FF0C480D490D4A0023EB
:1005A80002E0D458C4500433C4188C42F9D30A4A20
:1005B8000A4C002301E013600432A242FBD300F08E
:1005C80011F8FFF7A3FE704700000824000000247C
:1005D8000000002454060008000000242400002421
:1005E800FEE7000070B50D4D0D4C641BA4100026ED
:1005F800A64209D10B4D0C4C00F018F8641BA4104E
:100608000026A64205D170BD55F8043B984701362F
:10061800EEE755F8043B98470136F2E74C06000828
:100628004C0600084C06000850060008F8B500BF44
:10063800F8BC08BC9E467047F8B500BFF8BC08BCBB
:040648009E46704713
:04064C00BD020008E3
:040650009902000803
:040000050800059951
:00000001FF
